{
  "_format": "hh-sol-artifact-1",
  "contractName": "Pool",
  "sourceName": "contracts/Pool.sol",
  "abi": [
    {
      "inputs": [
        {
          "internalType": "address[]",
          "name": "_accounts",
          "type": "address[]"
        },
        {
          "internalType": "uint256",
          "name": "_targetAmount",
          "type": "uint256"
        },
        {
          "internalType": "string",
          "name": "_name",
          "type": "string"
        }
      ],
      "stateMutability": "nonpayable",
      "type": "constructor"
    },
    {
      "anonymous": false,
      "inputs": [
        {
          "indexed": false,
          "internalType": "address",
          "name": "account",
          "type": "address"
        },
        {
          "indexed": false,
          "internalType": "uint256",
          "name": "amount",
          "type": "uint256"
        },
        {
          "indexed": false,
          "internalType": "bool",
          "name": "success",
          "type": "bool"
        }
      ],
      "name": "Winner",
      "type": "event"
    },
    {
      "inputs": [
        {
          "internalType": "address",
          "name": "accountAddress",
          "type": "address"
        }
      ],
      "name": "addAccount",
      "outputs": [],
      "stateMutability": "nonpayable",
      "type": "function"
    },
    {
      "inputs": [],
      "name": "chooseWinner",
      "outputs": [],
      "stateMutability": "nonpayable",
      "type": "function"
    },
    {
      "inputs": [
        {
          "internalType": "uint256",
          "name": "index",
          "type": "uint256"
        }
      ],
      "name": "getAccountAtIndex",
      "outputs": [
        {
          "internalType": "address",
          "name": "",
          "type": "address"
        }
      ],
      "stateMutability": "view",
      "type": "function"
    },
    {
      "inputs": [],
      "name": "getAccounts",
      "outputs": [
        {
          "internalType": "address[]",
          "name": "",
          "type": "address[]"
        }
      ],
      "stateMutability": "view",
      "type": "function"
    },
    {
      "inputs": [],
      "name": "getAccountsLength",
      "outputs": [
        {
          "internalType": "uint256",
          "name": "",
          "type": "uint256"
        }
      ],
      "stateMutability": "view",
      "type": "function"
    },
    {
      "inputs": [],
      "name": "getAddress",
      "outputs": [
        {
          "internalType": "address",
          "name": "",
          "type": "address"
        }
      ],
      "stateMutability": "view",
      "type": "function"
    },
    {
      "inputs": [],
      "name": "getBalance",
      "outputs": [
        {
          "internalType": "uint256",
          "name": "",
          "type": "uint256"
        }
      ],
      "stateMutability": "view",
      "type": "function"
    },
    {
      "inputs": [],
      "name": "getName",
      "outputs": [
        {
          "internalType": "string",
          "name": "",
          "type": "string"
        }
      ],
      "stateMutability": "view",
      "type": "function"
    },
    {
      "inputs": [],
      "name": "getRandom",
      "outputs": [
        {
          "internalType": "uint256",
          "name": "",
          "type": "uint256"
        }
      ],
      "stateMutability": "view",
      "type": "function"
    },
    {
      "inputs": [],
      "name": "getTargetAmount",
      "outputs": [
        {
          "internalType": "uint256",
          "name": "",
          "type": "uint256"
        }
      ],
      "stateMutability": "view",
      "type": "function"
    },
    {
      "inputs": [
        {
          "internalType": "address",
          "name": "",
          "type": "address"
        }
      ],
      "name": "received",
      "outputs": [
        {
          "internalType": "bool",
          "name": "",
          "type": "bool"
        }
      ],
      "stateMutability": "view",
      "type": "function"
    },
    {
      "stateMutability": "payable",
      "type": "receive"
    }
  ],
  "bytecode": "0x60806040523480156200001157600080fd5b50604051620017c1380380620017c1833981810160405281019062000037919062000454565b82600090805190602001906200004f92919062000098565b508160018190555080600290816200006891906200072f565b5060008054905044426200007d919062000845565b620000899190620008af565b600381905550505050620008e7565b82805482825590600052602060002090810192821562000114579160200282015b82811115620001135782518260006101000a81548173ffffffffffffffffffffffffffffffffffffffff021916908373ffffffffffffffffffffffffffffffffffffffff16021790555091602001919060010190620000b9565b5b50905062000123919062000127565b5090565b5b808211156200014257600081600090555060010162000128565b5090565b6000604051905090565b600080fd5b600080fd5b600080fd5b6000601f19601f8301169050919050565b7f4e487b7100000000000000000000000000000000000000000000000000000000600052604160045260246000fd5b620001aa826200015f565b810181811067ffffffffffffffff82111715620001cc57620001cb62000170565b5b80604052505050565b6000620001e162000146565b9050620001ef82826200019f565b919050565b600067ffffffffffffffff82111562000212576200021162000170565b5b602082029050602081019050919050565b600080fd5b600073ffffffffffffffffffffffffffffffffffffffff82169050919050565b6000620002558262000228565b9050919050565b620002678162000248565b81146200027357600080fd5b50565b60008151905062000287816200025c565b92915050565b6000620002a46200029e84620001f4565b620001d5565b90508083825260208201905060208402830185811115620002ca57620002c962000223565b5b835b81811015620002f75780620002e2888262000276565b845260208401935050602081019050620002cc565b5050509392505050565b600082601f8301126200031957620003186200015a565b5b81516200032b8482602086016200028d565b91505092915050565b6000819050919050565b620003498162000334565b81146200035557600080fd5b50565b60008151905062000369816200033e565b92915050565b600080fd5b600067ffffffffffffffff82111562000392576200039162000170565b5b6200039d826200015f565b9050602081019050919050565b60005b83811015620003ca578082015181840152602081019050620003ad565b60008484015250505050565b6000620003ed620003e78462000374565b620001d5565b9050828152602081018484840111156200040c576200040b6200036f565b5b62000419848285620003aa565b509392505050565b600082601f8301126200043957620004386200015a565b5b81516200044b848260208601620003d6565b91505092915050565b60008060006060848603121562000470576200046f62000150565b5b600084015167ffffffffffffffff81111562000491576200049062000155565b5b6200049f8682870162000301565b9350506020620004b28682870162000358565b925050604084015167ffffffffffffffff811115620004d657620004d562000155565b5b620004e48682870162000421565b9150509250925092565b600081519050919050565b7f4e487b7100000000000000000000000000000000000000000000000000000000600052602260045260246000fd5b600060028204905060018216806200054157607f821691505b602082108103620005575762000556620004f9565b5b50919050565b60008190508160005260206000209050919050565b60006020601f8301049050919050565b600082821b905092915050565b600060088302620005c17fffffffffffffffffffffffffffffffffffffffffffffffffffffffffffffffff8262000582565b620005cd868362000582565b95508019841693508086168417925050509392505050565b6000819050919050565b6000620006106200060a620006048462000334565b620005e5565b62000334565b9050919050565b6000819050919050565b6200062c83620005ef565b620006446200063b8262000617565b8484546200058f565b825550505050565b600090565b6200065b6200064c565b6200066881848462000621565b505050565b5b8181101562000690576200068460008262000651565b6001810190506200066e565b5050565b601f821115620006df57620006a9816200055d565b620006b48462000572565b81016020851015620006c4578190505b620006dc620006d38562000572565b8301826200066d565b50505b505050565b600082821c905092915050565b60006200070460001984600802620006e4565b1980831691505092915050565b60006200071f8383620006f1565b9150826002028217905092915050565b6200073a82620004ee565b67ffffffffffffffff81111562000756576200075562000170565b5b62000762825462000528565b6200076f82828562000694565b600060209050601f831160018114620007a7576000841562000792578287015190505b6200079e858262000711565b8655506200080e565b601f198416620007b7866200055d565b60005b82811015620007e157848901518255600182019150602085019450602081019050620007ba565b86831015620008015784890151620007fd601f891682620006f1565b8355505b6001600288020188555050505b505050505050565b7f4e487b7100000000000000000000000000000000000000000000000000000000600052601160045260246000fd5b6000620008528262000334565b91506200085f8362000334565b92508282019050808211156200087a576200087962000816565b5b92915050565b7f4e487b7100000000000000000000000000000000000000000000000000000000600052601260045260246000fd5b6000620008bc8262000334565b9150620008c98362000334565b925082620008dc57620008db62000880565b5b828206905092915050565b610eca80620008f76000396000f3fe6080604052600436106100a05760003560e01c80638a48ac03116100645780638a48ac031461021b57806391ac4b8814610246578063aacc5a1714610271578063cd38aa871461029c578063df0cb934146102b3578063e89b0e1e146102f05761012d565b806312065fe01461013257806314f326a11461015d57806317d7de7c1461018857806338cc4831146101b35780635183d6fd146101de5761012d565b3661012d5760008054905060035442446100ba91906108ef565b6100c491906108ef565b6100ce9190610952565b6003819055506001600460003373ffffffffffffffffffffffffffffffffffffffff1673ffffffffffffffffffffffffffffffffffffffff16815260200190815260200160002060006101000a81548160ff0219169083151502179055005b600080fd5b34801561013e57600080fd5b50610147610319565b6040516101549190610992565b60405180910390f35b34801561016957600080fd5b50610172610321565b60405161017f9190610992565b60405180910390f35b34801561019457600080fd5b5061019d61032d565b6040516101aa9190610a3d565b60405180910390f35b3480156101bf57600080fd5b506101c86103bf565b6040516101d59190610aa0565b60405180910390f35b3480156101ea57600080fd5b5061020560048036038101906102009190610aec565b6103c7565b6040516102129190610aa0565b60405180910390f35b34801561022757600080fd5b5061023061040e565b60405161023d9190610bd7565b60405180910390f35b34801561025257600080fd5b5061025b61049c565b6040516102689190610992565b60405180910390f35b34801561027d57600080fd5b506102866104a6565b6040516102939190610992565b60405180910390f35b3480156102a857600080fd5b506102b16104b0565b005b3480156102bf57600080fd5b506102da60048036038101906102d59190610c25565b6106cc565b6040516102e79190610c6d565b60405180910390f35b3480156102fc57600080fd5b5061031760048036038101906103129190610c25565b6106ec565b005b600047905090565b60008080549050905090565b60606002805461033c90610cb7565b80601f016020809104026020016040519081016040528092919081815260200182805461036890610cb7565b80156103b55780601f1061038a576101008083540402835291602001916103b5565b820191906000526020600020905b81548152906001019060200180831161039857829003601f168201915b5050505050905090565b600030905090565b60008082815481106103dc576103db610ce8565b5b9060005260206000200160009054906101000a900473ffffffffffffffffffffffffffffffffffffffff169050919050565b6060600080548060200260200160405190810160405280929190818152602001828054801561049257602002820191906000526020600020905b8160009054906101000a900473ffffffffffffffffffffffffffffffffffffffff1673ffffffffffffffffffffffffffffffffffffffff1681526020019060010190808311610448575b5050505050905090565b6000600154905090565b6000600354905090565b600080600354815481106104c7576104c6610ce8565b5b9060005260206000200160009054906101000a900473ffffffffffffffffffffffffffffffffffffffff16905061054b816040518060400160405280600a81526020017f2062616c616e63653a20000000000000000000000000000000000000000000008152508373ffffffffffffffffffffffffffffffffffffffff1631610752565b61058a6040518060400160405280600d81526020017f63686f73656e20616464793a2000000000000000000000000000000000000000815250826107f1565b60008173ffffffffffffffffffffffffffffffffffffffff16476040516105b090610d48565b60006040518083038185875af1925050503d80600081146105ed576040519150601f19603f3d011682016040523d82523d6000602084013e6105f2565b606091505b505090507f50c1333027ff7c6d25a47998f498b8d06b7b2d02e5408ef0a5b5f42d22e8d8d982478360405161062993929190610d5d565b60405180910390a180610671576040517f08c379a000000000000000000000000000000000000000000000000000000000815260040161066890610e06565b60405180910390fd5b6106c8826040518060400160405280600a81526020017f2062616c616e63653a20000000000000000000000000000000000000000000008152508473ffffffffffffffffffffffffffffffffffffffff1631610752565b5050565b60046020528060005260406000206000915054906101000a900460ff1681565b6000819080600181540180825580915050600190039060005260206000200160009091909190916101000a81548173ffffffffffffffffffffffffffffffffffffffff021916908373ffffffffffffffffffffffffffffffffffffffff16021790555050565b6107ec83838360405160240161076a93929190610e26565b6040516020818303038152906040527f67dd6ff1000000000000000000000000000000000000000000000000000000007bffffffffffffffffffffffffffffffffffffffffffffffffffffffff19166020820180517bffffffffffffffffffffffffffffffffffffffffffffffffffffffff838183161783525050505061088d565b505050565b6108898282604051602401610807929190610e64565b6040516020818303038152906040527f319af333000000000000000000000000000000000000000000000000000000007bffffffffffffffffffffffffffffffffffffffffffffffffffffffff19166020820180517bffffffffffffffffffffffffffffffffffffffffffffffffffffffff838183161783525050505061088d565b5050565b60008151905060006a636f6e736f6c652e6c6f679050602083016000808483855afa5050505050565b6000819050919050565b7f4e487b7100000000000000000000000000000000000000000000000000000000600052601160045260246000fd5b60006108fa826108b6565b9150610905836108b6565b925082820190508082111561091d5761091c6108c0565b5b92915050565b7f4e487b7100000000000000000000000000000000000000000000000000000000600052601260045260246000fd5b600061095d826108b6565b9150610968836108b6565b92508261097857610977610923565b5b828206905092915050565b61098c816108b6565b82525050565b60006020820190506109a76000830184610983565b92915050565b600081519050919050565b600082825260208201905092915050565b60005b838110156109e75780820151818401526020810190506109cc565b60008484015250505050565b6000601f19601f8301169050919050565b6000610a0f826109ad565b610a1981856109b8565b9350610a298185602086016109c9565b610a32816109f3565b840191505092915050565b60006020820190508181036000830152610a578184610a04565b905092915050565b600073ffffffffffffffffffffffffffffffffffffffff82169050919050565b6000610a8a82610a5f565b9050919050565b610a9a81610a7f565b82525050565b6000602082019050610ab56000830184610a91565b92915050565b600080fd5b610ac9816108b6565b8114610ad457600080fd5b50565b600081359050610ae681610ac0565b92915050565b600060208284031215610b0257610b01610abb565b5b6000610b1084828501610ad7565b91505092915050565b600081519050919050565b600082825260208201905092915050565b6000819050602082019050919050565b610b4e81610a7f565b82525050565b6000610b608383610b45565b60208301905092915050565b6000602082019050919050565b6000610b8482610b19565b610b8e8185610b24565b9350610b9983610b35565b8060005b83811015610bca578151610bb18882610b54565b9750610bbc83610b6c565b925050600181019050610b9d565b5085935050505092915050565b60006020820190508181036000830152610bf18184610b79565b905092915050565b610c0281610a7f565b8114610c0d57600080fd5b50565b600081359050610c1f81610bf9565b92915050565b600060208284031215610c3b57610c3a610abb565b5b6000610c4984828501610c10565b91505092915050565b60008115159050919050565b610c6781610c52565b82525050565b6000602082019050610c826000830184610c5e565b92915050565b7f4e487b7100000000000000000000000000000000000000000000000000000000600052602260045260246000fd5b60006002820490506001821680610ccf57607f821691505b602082108103610ce257610ce1610c88565b5b50919050565b7f4e487b7100000000000000000000000000000000000000000000000000000000600052603260045260246000fd5b600081905092915050565b50565b6000610d32600083610d17565b9150610d3d82610d22565b600082019050919050565b6000610d5382610d25565b9150819050919050565b6000606082019050610d726000830186610a91565b610d7f6020830185610983565b610d8c6040830184610c5e565b949350505050565b7f4661696c656420746f207769746864726177206d6f6e65792066726f6d20636f60008201527f6e74726163742e00000000000000000000000000000000000000000000000000602082015250565b6000610df06027836109b8565b9150610dfb82610d94565b604082019050919050565b60006020820190508181036000830152610e1f81610de3565b9050919050565b6000606082019050610e3b6000830186610a91565b8181036020830152610e4d8185610a04565b9050610e5c6040830184610983565b949350505050565b60006040820190508181036000830152610e7e8185610a04565b9050610e8d6020830184610a91565b939250505056fea264697066735822122027f10782a2c29d3344210f607e81b04de245dd388f4b2d7330d84eb18401f89e64736f6c63430008110033",
  "linkReferences": {},
  "deployedLinkReferences": {}
}