{
  "_format": "hh-sol-artifact-1",
  "contractName": "Pools",
  "sourceName": "contracts/Pool.sol",
  "abi": [
    {
      "inputs": [],
      "stateMutability": "nonpayable",
      "type": "constructor"
    },
    {
      "inputs": [
        {
          "internalType": "address",
          "name": "pool",
          "type": "address"
        }
      ],
      "name": "addPool",
      "outputs": [],
      "stateMutability": "nonpayable",
      "type": "function"
    },
    {
      "inputs": [],
      "name": "getAllPools",
      "outputs": [
        {
          "internalType": "address[]",
          "name": "",
          "type": "address[]"
        }
      ],
      "stateMutability": "view",
      "type": "function"
    }
  ],
  "bytecode": "0x608060405234801561001057600080fd5b5061030f806100206000396000f3fe608060405234801561001057600080fd5b50600436106100365760003560e01c8063d88ff1f41461003b578063d914cd4b14610059575b600080fd5b610043610075565b6040516100509190610259565b60405180910390f35b610073600480360381019061006e91906102ac565b610103565b005b606060008054806020026020016040519081016040528092919081815260200182805480156100f957602002820191906000526020600020905b8160009054906101000a900473ffffffffffffffffffffffffffffffffffffffff1673ffffffffffffffffffffffffffffffffffffffff16815260200190600101908083116100af575b5050505050905090565b6000819080600181540180825580915050600190039060005260206000200160009091909190916101000a81548173ffffffffffffffffffffffffffffffffffffffff021916908373ffffffffffffffffffffffffffffffffffffffff16021790555050565b600081519050919050565b600082825260208201905092915050565b6000819050602082019050919050565b600073ffffffffffffffffffffffffffffffffffffffff82169050919050565b60006101c082610195565b9050919050565b6101d0816101b5565b82525050565b60006101e283836101c7565b60208301905092915050565b6000602082019050919050565b600061020682610169565b6102108185610174565b935061021b83610185565b8060005b8381101561024c57815161023388826101d6565b975061023e836101ee565b92505060018101905061021f565b5085935050505092915050565b6000602082019050818103600083015261027381846101fb565b905092915050565b600080fd5b610289816101b5565b811461029457600080fd5b50565b6000813590506102a681610280565b92915050565b6000602082840312156102c2576102c161027b565b5b60006102d084828501610297565b9150509291505056fea26469706673582212207fb126887021d783e29ff46392d0501d79d9ee884ed60a984957d1e51df9f7ef64736f6c63430008110033",
  "linkReferences": {},
  "deployedLinkReferences": {}
}